:100000000C942A000C9434000C9434000C943400AA
:100010000C9434000C9434000C9434000C94340090
:100020000C9434000C9434000C9434000C94340080
:100030000C9434000C9434000C9434000C94340070
:100040000C9434000C9434000C9434000C94340060
:100050000C94340011241FBECFE5D8E0DEBFCDBF25
:100060000E94A9010C94CB010C940000DF93CF9364
:10007000CDB7DEB7EAE3F0E08FEF8083E7E3F0E0AF
:100080008FEF8083E4E3F0E08FEF8083E1E3F0E043
:1000900088EF8083CF91DF910895DF93CF9300D0D5
:1000A000CDB7DEB789836A838981883080F58A81FC
:1000B0008130A1F4ABE3B0E0EBE3F0E08081482FC6
:1000C0008981282F30E081E090E0022E02C0880F65
:1000D000991F0A94E2F7842B8C93CBC08A818823E2
:1000E00009F0C7C0ABE3B0E0EBE3F0E08081482F5C
:1000F0008981282F30E081E090E0022E02C0880F35
:10010000991F0A94E2F7809584238C93B2C0898169
:100110008830C8F189818031B0F58A818130B9F4A5
:10012000A8E3B0E0E8E3F0E08081482F8981882FE0
:1001300090E09C012850304081E090E0022E02C007
:10014000880F991F0A94E2F7842B8C9392C08A81BE
:10015000882309F08EC0A8E3B0E0E8E3F0E08081F6
:10016000482F8981882F90E09C012850304081E001
:1001700090E0022E02C0880F991F0A94E2F7809542
:1001800084238C9376C089818031C8F1898188313C
:10019000B0F58A818130B9F4A5E3B0E0E5E3F0E0A1
:1001A0008081482F8981882F90E09C012051304028
:1001B00081E090E0022E02C0880F991F0A94E2F7B6
:1001C000842B8C9356C08A81882309F052C0A5E302
:1001D000B0E0E5E3F0E08081482F8981882F90E04E
:1001E0009C012051304081E090E0022E02C0880F37
:1001F000991F0A94E2F7809584238C933AC08981F1
:100200008831B8F189818032A0F58A818130B9F4D2
:10021000A2E3B0E0E2E3F0E08081482F8981882FFB
:1002200090E09C012851304081E090E0022E02C015
:10023000880F991F0A94E2F7842B8C931AC08A8145
:100240008823B9F4A2E3B0E0E2E3F0E08081482F34
:100250008981882F90E09C012851304081E090E016
:10026000022E02C0880F991F0A94E2F7809584231A
:100270008C930F900F90CF91DF910895DF93CF93E0
:1002800000D0CDB7DEB78A838A81883090F4E9E365
:10029000F0E08081282F30E08A81882F90E0A9014A
:1002A00002C0559547958A95E2F7CA018170898306
:1002B0004AC08A818830B0F08A81803198F4E6E3C0
:1002C000F0E08081282F30E08A81882F90E0089725
:1002D000A90102C0559547958A95E2F7CA01817038
:1002E000898331C08A818031B0F08A81883198F465
:1002F000E3E3F0E08081282F30E08A81882F90E0CE
:100300004097A90102C0559547958A95E2F7CA0121
:100310008170898318C08A818831A8F08A818032EF
:1003200090F4E0E3F0E08081282F30E08A81882F8C
:1003300090E04897A90102C0559547958A95E2F744
:10034000CA018170898389810F900F90CF91DF91CD
:100350000895DF93CF93CDB7DEB70E94360088E1D2
:100360000E943E01813049F48DE161E00E944D0020
:100370008EE160E00E944D00F2CF89E10E943E01D3
:10038000813069F78EE161E00E944D008DE160E00F
:0A0390000E944D00E4CFF894FFCF67
:00000001FF
